{
  "transactions": [
    {
      "hash": "0xadd41a2342177014e974f57c4136da39fc00c0290c2f963d227cad2d3f600068",
      "transactionType": "CALL",
      "contractName": null,
      "contractAddress": "0x91b9e3cf2449eca45e7f4097f288582a46ffc38c",
      "function": "commit(uint256,bytes32)",
      "arguments": [
        "8",
        "0x290decd9548b62a8d60345a988386fc84ba6bc95484008f6362f93160ef3e563"
      ],
      "transaction": {
        "from": "0xe49c9ea00337182374e112c452247a2d1db61798",
        "to": "0x91b9e3cf2449eca45e7f4097f288582a46ffc38c",
        "gas": "0x288f5",
        "value": "0x0",
        "input": "0xf2f038770000000000000000000000000000000000000000000000000000000000000008290decd9548b62a8d60345a988386fc84ba6bc95484008f6362f93160ef3e563",
        "nonce": "0xf",
        "chainId": "0xd6df"
      },
      "additionalContracts": [],
      "isFixedGasLimit": false
    }
  ],
  "receipts": [],
  "libraries": [],
  "pending": [
    "0xadd41a2342177014e974f57c4136da39fc00c0290c2f963d227cad2d3f600068"
  ],
  "returns": {},
  "timestamp": 1727156294,
  "chain": 55007,
  "commit": "0a32ff9"
}