{
  "transactions": [
    {
      "hash": "0x4a628abf50ddeb2ed5a25e411cf1c06fce4872ce55c9238481170db9ae2cb90f",
      "transactionType": "CALL",
      "contractName": null,
      "contractAddress": "0x91b9e3cf2449eca45e7f4097f288582a46ffc38c",
      "function": "commit(uint256,bytes32)",
      "arguments": [
        "0",
        "0xb10e2d527612073b26eecdfd717e6a320cf44b4afac2b0732d9fcbe2b7fa0cf6"
      ],
      "transaction": {
        "from": "0xb68aa9e398c054da7ebaaa446292f611ca0cd52b",
        "to": "0x91b9e3cf2449eca45e7f4097f288582a46ffc38c",
        "gas": "0x1d11e",
        "value": "0x0",
        "input": "0xf2f038770000000000000000000000000000000000000000000000000000000000000000b10e2d527612073b26eecdfd717e6a320cf44b4afac2b0732d9fcbe2b7fa0cf6",
        "nonce": "0xb8",
        "chainId": "0xd6df"
      },
      "additionalContracts": [],
      "isFixedGasLimit": false
    }
  ],
  "receipts": [],
  "libraries": [],
  "pending": [
    "0x4a628abf50ddeb2ed5a25e411cf1c06fce4872ce55c9238481170db9ae2cb90f"
  ],
  "returns": {},
  "timestamp": 1727155165,
  "chain": 55007,
  "commit": "0a32ff9"
}