{
  "transactions": [
    {
      "hash": "0x20efa34765981f91eb03456ffd61bf51aefd4690f8f3e0545470b809ad736299",
      "transactionType": "CALL",
      "contractName": null,
      "contractAddress": "0x91b9e3cf2449eca45e7f4097f288582a46ffc38c",
      "function": "commit(uint256,bytes32)",
      "arguments": [
        "1",
        "0xb10e2d527612073b26eecdfd717e6a320cf44b4afac2b0732d9fcbe2b7fa0cf6"
      ],
      "transaction": {
        "from": "0xe49c9ea00337182374e112c452247a2d1db61798",
        "to": "0x91b9e3cf2449eca45e7f4097f288582a46ffc38c",
        "gas": "0x1ec8d",
        "value": "0x0",
        "input": "0xf2f038770000000000000000000000000000000000000000000000000000000000000001b10e2d527612073b26eecdfd717e6a320cf44b4afac2b0732d9fcbe2b7fa0cf6",
        "nonce": "0x6",
        "chainId": "0xd6df"
      },
      "additionalContracts": [],
      "isFixedGasLimit": false
    }
  ],
  "receipts": [],
  "libraries": [],
  "pending": [
    "0x20efa34765981f91eb03456ffd61bf51aefd4690f8f3e0545470b809ad736299"
  ],
  "returns": {},
  "timestamp": 1727154584,
  "chain": 55007,
  "commit": "0a32ff9"
}