{
  "transactions": [
    {
      "hash": "0x5211a5ab46c4dfd54815a70d3938418a44f8e8f25c23ba3fd8c1140a5eb4bddc",
      "transactionType": "CALL",
      "contractName": null,
      "contractAddress": "0x91b9e3cf2449eca45e7f4097f288582a46ffc38c",
      "function": "commit(uint256,bytes32)",
      "arguments": [
        "8",
        "0xb10e2d527612073b26eecdfd717e6a320cf44b4afac2b0732d9fcbe2b7fa0cf6"
      ],
      "transaction": {
        "from": "0xb68aa9e398c054da7ebaaa446292f611ca0cd52b",
        "to": "0x91b9e3cf2449eca45e7f4097f288582a46ffc38c",
        "gas": "0x1ec8d",
        "value": "0x0",
        "input": "0xf2f038770000000000000000000000000000000000000000000000000000000000000008b10e2d527612073b26eecdfd717e6a320cf44b4afac2b0732d9fcbe2b7fa0cf6",
        "nonce": "0xc2",
        "chainId": "0xd6df"
      },
      "additionalContracts": [],
      "isFixedGasLimit": false
    }
  ],
  "receipts": [],
  "libraries": [],
  "pending": [
    "0x5211a5ab46c4dfd54815a70d3938418a44f8e8f25c23ba3fd8c1140a5eb4bddc"
  ],
  "returns": {},
  "timestamp": 1727156303,
  "chain": 55007,
  "commit": "0a32ff9"
}