{
  "transactions": [
    {
      "hash": "0xacead726ff658bc7e1ab2a7425de273f2e70f6192fefba54fa62a569d8d79c33",
      "transactionType": "CALL",
      "contractName": null,
      "contractAddress": "0x66a4855a3020b94ec910bfdc114f77d2596ba433",
      "function": "commit(uint256,bytes32)",
      "arguments": [
        "5",
        "0x290decd9548b62a8d60345a988386fc84ba6bc95484008f6362f93160ef3e563"
      ],
      "transaction": {
        "from": "0xe49c9ea00337182374e112c452247a2d1db61798",
        "to": "0x66a4855a3020b94ec910bfdc114f77d2596ba433",
        "gas": "0x288f5",
        "value": "0x0",
        "input": "0xf2f038770000000000000000000000000000000000000000000000000000000000000005290decd9548b62a8d60345a988386fc84ba6bc95484008f6362f93160ef3e563",
        "nonce": "0x18",
        "chainId": "0xd6df"
      },
      "additionalContracts": [],
      "isFixedGasLimit": false
    }
  ],
  "receipts": [],
  "libraries": [],
  "pending": [
    "0xacead726ff658bc7e1ab2a7425de273f2e70f6192fefba54fa62a569d8d79c33"
  ],
  "returns": {},
  "timestamp": 1727160794,
  "chain": 55007,
  "commit": "1694711"
}