{
  "transactions": [
    {
      "hash": "0xb60053d7f1ff0e901529996b35b451993386065571bf2ad6f8b01872e98c790a",
      "transactionType": "CALL",
      "contractName": null,
      "contractAddress": "0x91b9e3cf2449eca45e7f4097f288582a46ffc38c",
      "function": "reveal(uint256,bytes32)",
      "arguments": [
        "7",
        "0x0000000000000000000000000000000000000000000000000000000000000000"
      ],
      "transaction": {
        "from": "0xb68aa9e398c054da7ebaaa446292f611ca0cd52b",
        "to": "0x91b9e3cf2449eca45e7f4097f288582a46ffc38c",
        "gas": "0x1aeb8",
        "value": "0x0",
        "input": "0x4036778f00000000000000000000000000000000000000000000000000000000000000070000000000000000000000000000000000000000000000000000000000000000",
        "nonce": "0xc3",
        "chainId": "0xd6df"
      },
      "additionalContracts": [],
      "isFixedGasLimit": false
    }
  ],
  "receipts": [],
  "libraries": [],
  "pending": [
    "0xb60053d7f1ff0e901529996b35b451993386065571bf2ad6f8b01872e98c790a"
  ],
  "returns": {},
  "timestamp": 1727156312,
  "chain": 55007,
  "commit": "0a32ff9"
}