{
  "transactions": [
    {
      "hash": "0x7cb6f80b9bc328c0d5c2e75da008da35bea1093e216bdf96cf99bd6e5320af41",
      "transactionType": "CALL",
      "contractName": null,
      "contractAddress": "0x66a4855a3020b94ec910bfdc114f77d2596ba433",
      "function": "reveal(uint256,bytes32)",
      "arguments": [
        "0",
        "0x0000000000000000000000000000000000000000000000000000000000000000"
      ],
      "transaction": {
        "from": "0xb68aa9e398c054da7ebaaa446292f611ca0cd52b",
        "to": "0x66a4855a3020b94ec910bfdc114f77d2596ba433",
        "gas": "0x1c7fd",
        "value": "0x0",
        "input": "0x4036778f00000000000000000000000000000000000000000000000000000000000000000000000000000000000000000000000000000000000000000000000000000000",
        "nonce": "0xd6",
        "chainId": "0xd6df"
      },
      "additionalContracts": [],
      "isFixedGasLimit": false
    }
  ],
  "receipts": [],
  "libraries": [],
  "pending": [
    "0x7cb6f80b9bc328c0d5c2e75da008da35bea1093e216bdf96cf99bd6e5320af41"
  ],
  "returns": {},
  "timestamp": 1727159935,
  "chain": 55007,
  "commit": "0a32ff9"
}