{
  "transactions": [
    {
      "hash": "0x92c97d9ea154616c792376f959660021209a48975b88132569c454dab87110c1",
      "transactionType": "CALL",
      "contractName": null,
      "contractAddress": "0x91b9e3cf2449eca45e7f4097f288582a46ffc38c",
      "function": "reveal(uint256,bytes32)",
      "arguments": [
        "1",
        "0x0000000000000000000000000000000000000000000000000000000000000001"
      ],
      "transaction": {
        "from": "0xe49c9ea00337182374e112c452247a2d1db61798",
        "to": "0x91b9e3cf2449eca45e7f4097f288582a46ffc38c",
        "gas": "0x21a27",
        "value": "0x0",
        "input": "0x4036778f00000000000000000000000000000000000000000000000000000000000000010000000000000000000000000000000000000000000000000000000000000001",
        "nonce": "0x7",
        "chainId": "0xd6df"
      },
      "additionalContracts": [],
      "isFixedGasLimit": false
    }
  ],
  "receipts": [],
  "libraries": [],
  "pending": [
    "0x92c97d9ea154616c792376f959660021209a48975b88132569c454dab87110c1"
  ],
  "returns": {},
  "timestamp": 1727154710,
  "chain": 55007,
  "commit": "0a32ff9"
}