{
  "transactions": [
    {
      "hash": "0xeb32c3da05a484799f529d9f684c6e9cfc9e33b919d6c57d86cc4391eef8faad",
      "transactionType": "CALL",
      "contractName": null,
      "contractAddress": "0x66a4855a3020b94ec910bfdc114f77d2596ba433",
      "function": "commit(uint256,bytes32)",
      "arguments": [
        "2",
        "0xb10e2d527612073b26eecdfd717e6a320cf44b4afac2b0732d9fcbe2b7fa0cf6"
      ],
      "transaction": {
        "from": "0xb68aa9e398c054da7ebaaa446292f611ca0cd52b",
        "to": "0x66a4855a3020b94ec910bfdc114f77d2596ba433",
        "gas": "0x1ec8d",
        "value": "0x0",
        "input": "0xf2f038770000000000000000000000000000000000000000000000000000000000000002b10e2d527612073b26eecdfd717e6a320cf44b4afac2b0732d9fcbe2b7fa0cf6",
        "nonce": "0xd5",
        "chainId": "0xd6df"
      },
      "additionalContracts": [],
      "isFixedGasLimit": false
    }
  ],
  "receipts": [],
  "libraries": [],
  "pending": [
    "0xeb32c3da05a484799f529d9f684c6e9cfc9e33b919d6c57d86cc4391eef8faad"
  ],
  "returns": {},
  "timestamp": 1727159917,
  "chain": 55007,
  "commit": "0a32ff9"
}