{
  "transactions": [
    {
      "hash": "0xea5cd07b53e092bb3f2690e8fa80eca196143e0434de86932ce237229a920bbf",
      "transactionType": "CALL",
      "contractName": null,
      "contractAddress": "0x66a4855a3020b94ec910bfdc114f77d2596ba433",
      "function": "commit(uint256,bytes32)",
      "arguments": [
        "1",
        "0x290decd9548b62a8d60345a988386fc84ba6bc95484008f6362f93160ef3e563"
      ],
      "transaction": {
        "from": "0xb68aa9e398c054da7ebaaa446292f611ca0cd52b",
        "to": "0x66a4855a3020b94ec910bfdc114f77d2596ba433",
        "gas": "0x288f5",
        "value": "0x0",
        "input": "0xf2f038770000000000000000000000000000000000000000000000000000000000000001290decd9548b62a8d60345a988386fc84ba6bc95484008f6362f93160ef3e563",
        "nonce": "0xd1",
        "chainId": "0xd6df"
      },
      "additionalContracts": [],
      "isFixedGasLimit": false
    }
  ],
  "receipts": [],
  "libraries": [],
  "pending": [
    "0xea5cd07b53e092bb3f2690e8fa80eca196143e0434de86932ce237229a920bbf"
  ],
  "returns": {},
  "timestamp": 1727159817,
  "chain": 55007,
  "commit": "0a32ff9"
}