{
  "transactions": [
    {
      "hash": "0x829a83bb1cfb7118fdc1212b3f88d49214acda1c447ac4da1c62d9c835137733",
      "transactionType": "CALL",
      "contractName": null,
      "contractAddress": "0x91b9e3cf2449eca45e7f4097f288582a46ffc38c",
      "function": "reveal(uint256,bytes32)",
      "arguments": [
        "5",
        "0x0000000000000000000000000000000000000000000000000000000000000001"
      ],
      "transaction": {
        "from": "0xb68aa9e398c054da7ebaaa446292f611ca0cd52b",
        "to": "0x91b9e3cf2449eca45e7f4097f288582a46ffc38c",
        "gas": "0x21a27",
        "value": "0x0",
        "input": "0x4036778f00000000000000000000000000000000000000000000000000000000000000050000000000000000000000000000000000000000000000000000000000000001",
        "nonce": "0xb7",
        "chainId": "0xd6df"
      },
      "additionalContracts": [],
      "isFixedGasLimit": false
    }
  ],
  "receipts": [],
  "libraries": [],
  "pending": [
    "0x829a83bb1cfb7118fdc1212b3f88d49214acda1c447ac4da1c62d9c835137733"
  ],
  "returns": {},
  "timestamp": 1727155072,
  "chain": 55007,
  "commit": "0a32ff9"
}