{
  "transactions": [
    {
      "hash": "0x23fea94e7cf2a0c25bd345b5700d87a16f3070eab821bdea351d5f12624cc36e",
      "transactionType": "CALL",
      "contractName": null,
      "contractAddress": "0x91b9e3cf2449eca45e7f4097f288582a46ffc38c",
      "function": "commit(uint256,bytes32)",
      "arguments": [
        "2",
        "0x290decd9548b62a8d60345a988386fc84ba6bc95484008f6362f93160ef3e563"
      ],
      "transaction": {
        "from": "0xe49c9ea00337182374e112c452247a2d1db61798",
        "to": "0x91b9e3cf2449eca45e7f4097f288582a46ffc38c",
        "gas": "0x288f5",
        "value": "0x0",
        "input": "0xf2f038770000000000000000000000000000000000000000000000000000000000000002290decd9548b62a8d60345a988386fc84ba6bc95484008f6362f93160ef3e563",
        "nonce": "0x8",
        "chainId": "0xd6df"
      },
      "additionalContracts": [],
      "isFixedGasLimit": false
    }
  ],
  "receipts": [],
  "libraries": [],
  "pending": [
    "0x23fea94e7cf2a0c25bd345b5700d87a16f3070eab821bdea351d5f12624cc36e"
  ],
  "returns": {},
  "timestamp": 1727154754,
  "chain": 55007,
  "commit": "0a32ff9"
}