{
  "transactions": [
    {
      "hash": "0xb00c4b2eaa03b51a99e87165190c9addeea7674d3641e7b41af3b95b4a6279fa",
      "transactionType": "CALL",
      "contractName": null,
      "contractAddress": "0x91b9e3cf2449eca45e7f4097f288582a46ffc38c",
      "function": "reveal(uint256,bytes32)",
      "arguments": [
        "3",
        "0x0000000000000000000000000000000000000000000000000000000000000000"
      ],
      "transaction": {
        "from": "0xb68aa9e398c054da7ebaaa446292f611ca0cd52b",
        "to": "0x91b9e3cf2449eca45e7f4097f288582a46ffc38c",
        "gas": "0x1aeb8",
        "value": "0x0",
        "input": "0x4036778f00000000000000000000000000000000000000000000000000000000000000030000000000000000000000000000000000000000000000000000000000000000",
        "nonce": "0xb3",
        "chainId": "0xd6df"
      },
      "additionalContracts": [],
      "isFixedGasLimit": false
    }
  ],
  "receipts": [],
  "libraries": [],
  "pending": [
    "0xb00c4b2eaa03b51a99e87165190c9addeea7674d3641e7b41af3b95b4a6279fa"
  ],
  "returns": {},
  "timestamp": 1727154876,
  "chain": 55007,
  "commit": "0a32ff9"
}