{
  "transactions": [
    {
      "hash": "0x5f0b2899e12a24670c9ffc7e5694c6fcc7d2d8005aee9fac0804783aac105d6e",
      "transactionType": "CALL",
      "contractName": null,
      "contractAddress": "0x66a4855a3020b94ec910bfdc114f77d2596ba433",
      "function": "reveal(uint256,bytes32)",
      "arguments": [
        "4",
        "0x0000000000000000000000000000000000000000000000000000000000000001"
      ],
      "transaction": {
        "from": "0xe49c9ea00337182374e112c452247a2d1db61798",
        "to": "0x66a4855a3020b94ec910bfdc114f77d2596ba433",
        "gas": "0x21a27",
        "value": "0x0",
        "input": "0x4036778f00000000000000000000000000000000000000000000000000000000000000040000000000000000000000000000000000000000000000000000000000000001",
        "nonce": "0x17",
        "chainId": "0xd6df"
      },
      "additionalContracts": [],
      "isFixedGasLimit": false
    }
  ],
  "receipts": [],
  "libraries": [],
  "pending": [
    "0x5f0b2899e12a24670c9ffc7e5694c6fcc7d2d8005aee9fac0804783aac105d6e"
  ],
  "returns": {},
  "timestamp": 1727160086,
  "chain": 55007,
  "commit": "0a32ff9"
}