{
  "transactions": [
    {
      "hash": "0x16c10fa9c466717c41a80609d747117f43d778d0ed61340a87553221ec6f6bb3",
      "transactionType": "CALL",
      "contractName": null,
      "contractAddress": "0x66a4855a3020b94ec910bfdc114f77d2596ba433",
      "function": "commit(uint256,bytes32)",
      "arguments": [
        "0",
        "0xb10e2d527612073b26eecdfd717e6a320cf44b4afac2b0732d9fcbe2b7fa0cf6"
      ],
      "transaction": {
        "from": "0xe49c9ea00337182374e112c452247a2d1db61798",
        "to": "0x66a4855a3020b94ec910bfdc114f77d2596ba433",
        "gas": "0x1d11e",
        "value": "0x0",
        "input": "0xf2f038770000000000000000000000000000000000000000000000000000000000000000b10e2d527612073b26eecdfd717e6a320cf44b4afac2b0732d9fcbe2b7fa0cf6",
        "nonce": "0x14",
        "chainId": "0xd6df"
      },
      "additionalContracts": [],
      "isFixedGasLimit": false
    }
  ],
  "receipts": [],
  "libraries": [],
  "pending": [
    "0x16c10fa9c466717c41a80609d747117f43d778d0ed61340a87553221ec6f6bb3"
  ],
  "returns": {},
  "timestamp": 1727159896,
  "chain": 55007,
  "commit": "0a32ff9"
}