{
  "transactions": [
    {
      "hash": "0xaf5b9c3a450adadd65827187f843a70dec29cca8f99940496dbea02e6d607312",
      "transactionType": "CALL",
      "contractName": null,
      "contractAddress": "0x66a4855a3020b94ec910bfdc114f77d2596ba433",
      "function": "commit(uint256,bytes32)",
      "arguments": [
        "1",
        "0xb10e2d527612073b26eecdfd717e6a320cf44b4afac2b0732d9fcbe2b7fa0cf6"
      ],
      "transaction": {
        "from": "0xe49c9ea00337182374e112c452247a2d1db61798",
        "to": "0x66a4855a3020b94ec910bfdc114f77d2596ba433",
        "gas": "0x1ec8d",
        "value": "0x0",
        "input": "0xf2f038770000000000000000000000000000000000000000000000000000000000000001b10e2d527612073b26eecdfd717e6a320cf44b4afac2b0732d9fcbe2b7fa0cf6",
        "nonce": "0x12",
        "chainId": "0xd6df"
      },
      "additionalContracts": [],
      "isFixedGasLimit": false
    }
  ],
  "receipts": [],
  "libraries": [],
  "pending": [
    "0xaf5b9c3a450adadd65827187f843a70dec29cca8f99940496dbea02e6d607312"
  ],
  "returns": {},
  "timestamp": 1727159839,
  "chain": 55007,
  "commit": "0a32ff9"
}