{
  "transactions": [
    {
      "hash": "0x9118325b5d6278781699ebace91f8d561db913820606d1f3834e1e06e3a6d799",
      "transactionType": "CALL",
      "contractName": null,
      "contractAddress": "0x66a4855a3020b94ec910bfdc114f77d2596ba433",
      "function": "reveal(uint256,bytes32)",
      "arguments": [
        "1",
        "0x0000000000000000000000000000000000000000000000000000000000000001"
      ],
      "transaction": {
        "from": "0xe49c9ea00337182374e112c452247a2d1db61798",
        "to": "0x66a4855a3020b94ec910bfdc114f77d2596ba433",
        "gas": "0x21a27",
        "value": "0x0",
        "input": "0x4036778f00000000000000000000000000000000000000000000000000000000000000010000000000000000000000000000000000000000000000000000000000000001",
        "nonce": "0x13",
        "chainId": "0xd6df"
      },
      "additionalContracts": [],
      "isFixedGasLimit": false
    }
  ],
  "receipts": [],
  "libraries": [],
  "pending": [
    "0x9118325b5d6278781699ebace91f8d561db913820606d1f3834e1e06e3a6d799"
  ],
  "returns": {},
  "timestamp": 1727159860,
  "chain": 55007,
  "commit": "0a32ff9"
}