{
  "transactions": [
    {
      "hash": "0x9affa177b592c6335f2cf2d4a6866f42f7f578733729816cea9453158d1068c0",
      "transactionType": "CALL",
      "contractName": null,
      "contractAddress": "0x91b9e3cf2449eca45e7f4097f288582a46ffc38c",
      "function": "reveal(uint256,bytes32)",
      "arguments": [
        "5",
        "0x0000000000000000000000000000000000000000000000000000000000000000"
      ],
      "transaction": {
        "from": "0xe49c9ea00337182374e112c452247a2d1db61798",
        "to": "0x91b9e3cf2449eca45e7f4097f288582a46ffc38c",
        "gas": "0x6f689",
        "value": "0x0",
        "input": "0x4036778f00000000000000000000000000000000000000000000000000000000000000050000000000000000000000000000000000000000000000000000000000000000",
        "nonce": "0xc",
        "chainId": "0xd6df"
      },
      "additionalContracts": [],
      "isFixedGasLimit": false
    }
  ],
  "receipts": [],
  "libraries": [],
  "pending": [
    "0x9affa177b592c6335f2cf2d4a6866f42f7f578733729816cea9453158d1068c0"
  ],
  "returns": {},
  "timestamp": 1727155079,
  "chain": 55007,
  "commit": "0a32ff9"
}