{
  "transactions": [
    {
      "hash": "0xd77f09c0e8205aed7c586bc394d738e8ad513288b3c48b6e568e940f096849ea",
      "transactionType": "CALL",
      "contractName": null,
      "contractAddress": "0xf5a79df75194ddd01a0c1a16d93d0df5d78935a7",
      "function": "commit(uint256,bytes32)",
      "arguments": [
        "0",
        "0xb10e2d527612073b26eecdfd717e6a320cf44b4afac2b0732d9fcbe2b7fa0cf6"
      ],
      "transaction": {
        "from": "0x254fadcc5ddf4dc1bb31f7dbed697e090ff8f995",
        "to": "0xf5a79df75194ddd01a0c1a16d93d0df5d78935a7",
        "gas": "0x1eee0",
        "value": "0x0",
        "input": "0xf2f038770000000000000000000000000000000000000000000000000000000000000000b10e2d527612073b26eecdfd717e6a320cf44b4afac2b0732d9fcbe2b7fa0cf6",
        "nonce": "0x3",
        "chainId": "0x19f8f6fef2"
      },
      "additionalContracts": [],
      "isFixedGasLimit": false
    }
  ],
  "receipts": [
    {
      "status": "0x1",
      "cumulativeGasUsed": "0x2296c",
      "logs": [
        {
          "address": "0xf5a79df75194ddd01a0c1a16d93d0df5d78935a7",
          "topics": [
            "0x5e1dd8c4451717d5ca4ffbefdada35e22e0871220b9ed9dd03a351f0938c5ed7"
          ],
          "data": "0x000000000000000000000000254fadcc5ddf4dc1bb31f7dbed697e090ff8f9950000000000000000000000000000000000000000000000000000000000000000",
          "blockHash": "0xacf25db92a02528405aa773d984443cd4bad56e571c0ef5edea436ca5815f4e0",
          "blockNumber": "0x9f666",
          "transactionHash": "0xd77f09c0e8205aed7c586bc394d738e8ad513288b3c48b6e568e940f096849ea",
          "transactionIndex": "0x1",
          "logIndex": "0x0",
          "removed": false
        }
      ],
      "logsBloom": "0x00000000000000000004000000000000000000000000000000000000000000000000000000000000000000000000000000000000000000000000000000000000000000000000000000000000000000000000000000000000000000000000000000000000000000000000000000000000000000000000000000000000000000000000000000000000000000000000000000000000000000000000000000000040000000000000000000000000000000008000000100000000000000000000000000000000000000000000000000000000000800000000000000000020000000000000000000000000000000000000000000000000000000000000000000000000",
      "type": "0x2",
      "transactionHash": "0xd77f09c0e8205aed7c586bc394d738e8ad513288b3c48b6e568e940f096849ea",
      "transactionIndex": "0x1",
      "blockHash": "0xacf25db92a02528405aa773d984443cd4bad56e571c0ef5edea436ca5815f4e0",
      "blockNumber": "0x9f666",
      "gasUsed": "0x15261",
      "effectiveGasPrice": "0xfd",
      "from": "0x254fadcc5ddf4dc1bb31f7dbed697e090ff8f995",
      "to": "0xf5a79df75194ddd01a0c1a16d93d0df5d78935a7",
      "contractAddress": null,
      "l1Fee": "0x2df381b1100b",
      "l1GasPrice": "0x7038fa717",
      "l1GasUsed": "0x994"
    }
  ],
  "libraries": [],
  "pending": [],
  "returns": {},
  "timestamp": 1726102825,
  "chain": 111551119090,
  "commit": "7689402"
}