{
  "transactions": [
    {
      "hash": "0x0c7b23d128c49e29952f36e098fdae308c2c0df80f931f63b53cf1942970dcba",
      "transactionType": "CALL",
      "contractName": null,
      "contractAddress": "0xf5a79df75194ddd01a0c1a16d93d0df5d78935a7",
      "function": "reveal(uint256,bytes32)",
      "arguments": [
        "0",
        "0x0000000000000000000000000000000000000000000000000000000000000000"
      ],
      "transaction": {
        "from": "0xb68aa9e398c054da7ebaaa446292f611ca0cd52b",
        "to": "0xf5a79df75194ddd01a0c1a16d93d0df5d78935a7",
        "gas": "0x5b540",
        "value": "0x0",
        "input": "0x4036778f00000000000000000000000000000000000000000000000000000000000000000000000000000000000000000000000000000000000000000000000000000000",
        "nonce": "0x46",
        "chainId": "0x19f8f6fef2"
      },
      "additionalContracts": [],
      "isFixedGasLimit": false
    }
  ],
  "receipts": [
    {
      "status": "0x1",
      "cumulativeGasUsed": "0x4cd43",
      "logs": [
        {
          "address": "0xf5a79df75194ddd01a0c1a16d93d0df5d78935a7",
          "topics": [
            "0x0cc43938d137e7efade6a531f663e78c1fc75257b0d65ffda2fdaf70cb49cdf9"
          ],
          "data": "0x000000000000000000000000b68aa9e398c054da7ebaaa446292f611ca0cd52b",
          "blockHash": "0xdc568725265a234f20c49670ae0a76fe9c438eb35a807ffc6e26a326b0e56cd3",
          "blockNumber": "0x9f677",
          "transactionHash": "0x0c7b23d128c49e29952f36e098fdae308c2c0df80f931f63b53cf1942970dcba",
          "transactionIndex": "0x1",
          "logIndex": "0x0",
          "removed": false
        },
        {
          "address": "0xf5a79df75194ddd01a0c1a16d93d0df5d78935a7",
          "topics": [
            "0x0cc43938d137e7efade6a531f663e78c1fc75257b0d65ffda2fdaf70cb49cdf9"
          ],
          "data": "0x000000000000000000000000254fadcc5ddf4dc1bb31f7dbed697e090ff8f995",
          "blockHash": "0xdc568725265a234f20c49670ae0a76fe9c438eb35a807ffc6e26a326b0e56cd3",
          "blockNumber": "0x9f677",
          "transactionHash": "0x0c7b23d128c49e29952f36e098fdae308c2c0df80f931f63b53cf1942970dcba",
          "transactionIndex": "0x1",
          "logIndex": "0x1",
          "removed": false
        },
        {
          "address": "0xf5a79df75194ddd01a0c1a16d93d0df5d78935a7",
          "topics": [
            "0xf254aace0ef98d6ac1a0d84c95648f8e3f7a1881dbb43393709ecd004b00f103"
          ],
          "data": "0x000000000000000000000000b68aa9e398c054da7ebaaa446292f611ca0cd52b0000000000000000000000000000000000000000000000000000000000000000",
          "blockHash": "0xdc568725265a234f20c49670ae0a76fe9c438eb35a807ffc6e26a326b0e56cd3",
          "blockNumber": "0x9f677",
          "transactionHash": "0x0c7b23d128c49e29952f36e098fdae308c2c0df80f931f63b53cf1942970dcba",
          "transactionIndex": "0x1",
          "logIndex": "0x2",
          "removed": false
        }
      ],
      "logsBloom": "0x00000000000000000004000000000000000000000010000000000000000000000000080000000000000000000000000000000000000000000000000000000000000000000000000000000000000000000000000000000000000000000000000000000000000000000000001000000000000000000000000000000000000000000000008000000000000000000000000000000000000000000000000000000040000000000000100000000000000000000000000000000000000000000000000000000000000000000000000000000000000000000000000000000020000000000000000200000000000000000000000000000000000000000000000000000000",
      "type": "0x2",
      "transactionHash": "0x0c7b23d128c49e29952f36e098fdae308c2c0df80f931f63b53cf1942970dcba",
      "transactionIndex": "0x1",
      "blockHash": "0xdc568725265a234f20c49670ae0a76fe9c438eb35a807ffc6e26a326b0e56cd3",
      "blockNumber": "0x9f677",
      "gasUsed": "0x421ec",
      "effectiveGasPrice": "0xfd",
      "from": "0xb68aa9e398c054da7ebaaa446292f611ca0cd52b",
      "to": "0xf5a79df75194ddd01a0c1a16d93d0df5d78935a7",
      "contractAddress": null,
      "l1Fee": "0x271f8e45e526",
      "l1GasPrice": "0x70a2b55b4",
      "l1GasUsed": "0x820"
    }
  ],
  "libraries": [],
  "pending": [],
  "returns": {},
  "timestamp": 1726103032,
  "chain": 111551119090,
  "commit": "7689402"
}