{
  "transactions": [
    {
      "hash": "0x2922cd6d3ecabbee81639d1f4bca3b20c828f1119c20eae474ef18a3b416cebc",
      "transactionType": "CALL",
      "contractName": null,
      "contractAddress": "0xf5a79df75194ddd01a0c1a16d93d0df5d78935a7",
      "function": "reveal(uint256,bytes32)",
      "arguments": [
        "0",
        "0x0000000000000000000000000000000000000000000000000000000000000001"
      ],
      "transaction": {
        "from": "0x254fadcc5ddf4dc1bb31f7dbed697e090ff8f995",
        "to": "0xf5a79df75194ddd01a0c1a16d93d0df5d78935a7",
        "gas": "0x21af7",
        "value": "0x0",
        "input": "0x4036778f00000000000000000000000000000000000000000000000000000000000000000000000000000000000000000000000000000000000000000000000000000001",
        "nonce": "0x4",
        "chainId": "0x19f8f6fef2"
      },
      "additionalContracts": [],
      "isFixedGasLimit": false
    }
  ],
  "receipts": [
    {
      "status": "0x1",
      "cumulativeGasUsed": "0x2524f",
      "logs": [
        {
          "address": "0xf5a79df75194ddd01a0c1a16d93d0df5d78935a7",
          "topics": [
            "0xf254aace0ef98d6ac1a0d84c95648f8e3f7a1881dbb43393709ecd004b00f103"
          ],
          "data": "0x000000000000000000000000254fadcc5ddf4dc1bb31f7dbed697e090ff8f9950000000000000000000000000000000000000000000000000000000000000000",
          "blockHash": "0xc6a28d9de90e1360f922c7ead2b1397025b7f7dbcfe34e1012501630fc976a18",
          "blockNumber": "0x9f673",
          "transactionHash": "0x2922cd6d3ecabbee81639d1f4bca3b20c828f1119c20eae474ef18a3b416cebc",
          "transactionIndex": "0x1",
          "logIndex": "0x0",
          "removed": false
        }
      ],
      "logsBloom": "0x00000000000000000004000000000000000000000000000000000000000000000000000000000000000000000000000000000000000000000000000000000000000000000000000000000000000000000000000000000000000000000000000000000000000000000000001000000000000000000000000000000000000000000000008000000000000000000000000000000000000000000000000000000040000000000000000000000000000000000000000000000000000000000000000000000000000000000000000000000000000000000000000000000020000000000000000200000000000000000000000000000000000000000000000000000000",
      "type": "0x2",
      "transactionHash": "0x2922cd6d3ecabbee81639d1f4bca3b20c828f1119c20eae474ef18a3b416cebc",
      "transactionIndex": "0x1",
      "blockHash": "0xc6a28d9de90e1360f922c7ead2b1397025b7f7dbcfe34e1012501630fc976a18",
      "blockNumber": "0x9f673",
      "gasUsed": "0x18634",
      "effectiveGasPrice": "0xfd",
      "from": "0x254fadcc5ddf4dc1bb31f7dbed697e090ff8f995",
      "to": "0xf5a79df75194ddd01a0c1a16d93d0df5d78935a7",
      "contractAddress": null,
      "l1Fee": "0x273f76782491",
      "l1GasPrice": "0x7058a4469",
      "l1GasUsed": "0x82c"
    }
  ],
  "libraries": [],
  "pending": [],
  "returns": {},
  "timestamp": 1726102982,
  "chain": 111551119090,
  "commit": "7689402"
}