{
  "transactions": [
    {
      "hash": "0xd8baae72b0e0081cd4d73d8ab6f128f71e966933e1f3ddabaa5b9186d8a1502d",
      "transactionType": "CALL",
      "contractName": null,
      "contractAddress": "0xf5a79df75194ddd01a0c1a16d93d0df5d78935a7",
      "function": "commit(uint256,bytes32)",
      "arguments": [
        "0",
        "0x290decd9548b62a8d60345a988386fc84ba6bc95484008f6362f93160ef3e563"
      ],
      "transaction": {
        "from": "0xb68aa9e398c054da7ebaaa446292f611ca0cd52b",
        "to": "0xf5a79df75194ddd01a0c1a16d93d0df5d78935a7",
        "gas": "0x28a4b",
        "value": "0x0",
        "input": "0xf2f038770000000000000000000000000000000000000000000000000000000000000000290decd9548b62a8d60345a988386fc84ba6bc95484008f6362f93160ef3e563",
        "nonce": "0x45",
        "chainId": "0x19f8f6fef2"
      },
      "additionalContracts": [],
      "isFixedGasLimit": false
    }
  ],
  "receipts": [
    {
      "status": "0x1",
      "cumulativeGasUsed": "0x2adcd",
      "logs": [
        {
          "address": "0xf5a79df75194ddd01a0c1a16d93d0df5d78935a7",
          "topics": [
            "0x5e1dd8c4451717d5ca4ffbefdada35e22e0871220b9ed9dd03a351f0938c5ed7"
          ],
          "data": "0x000000000000000000000000b68aa9e398c054da7ebaaa446292f611ca0cd52b0000000000000000000000000000000000000000000000000000000000000000",
          "blockHash": "0x9a2f5e71e7f5daa143a6f7382562208ed01043442596cf73ca2c7b42c2f2931f",
          "blockNumber": "0x9f661",
          "transactionHash": "0xd8baae72b0e0081cd4d73d8ab6f128f71e966933e1f3ddabaa5b9186d8a1502d",
          "transactionIndex": "0x1",
          "logIndex": "0x0",
          "removed": false
        }
      ],
      "logsBloom": "0x00000000000000000004000000000000000000000000000000000000000000000000000000000000000000000000000000000000000000000000000000000000000000000000000000000000000000000000000000000000000000000000000000000000000000000000000000000000000000000000000000000000000000000000000000000000000000000000000000000000000000000000000000000040000000000000000000000000000000008000000100000000000000000000000000000000000000000000000000000000000800000000000000000020000000000000000000000000000000000000000000000000000000000000000000000000",
      "type": "0x2",
      "transactionHash": "0xd8baae72b0e0081cd4d73d8ab6f128f71e966933e1f3ddabaa5b9186d8a1502d",
      "transactionIndex": "0x1",
      "blockHash": "0x9a2f5e71e7f5daa143a6f7382562208ed01043442596cf73ca2c7b42c2f2931f",
      "blockNumber": "0x9f661",
      "gasUsed": "0x1d6ce",
      "effectiveGasPrice": "0xfd",
      "from": "0xb68aa9e398c054da7ebaaa446292f611ca0cd52b",
      "to": "0xf5a79df75194ddd01a0c1a16d93d0df5d78935a7",
      "contractAddress": null,
      "l1Fee": "0x341e03d60841",
      "l1GasPrice": "0x7ea957944",
      "l1GasUsed": "0x9a0"
    }
  ],
  "libraries": [],
  "pending": [],
  "returns": {},
  "timestamp": 1726102769,
  "chain": 111551119090,
  "commit": "7689402"
}