{
  "transactions": [
    {
      "hash": null,
      "transactionType": "CALL",
      "contractName": null,
      "contractAddress": "0x78acca4e8269e6082d1c78b7386366feb7865fb4",
      "function": "reveal(uint256,bytes32)",
      "arguments": [
        "104",
        "0x0704a5959ed7c0ca9e105a816ed41ead23c47d2c0d166d32735eba96ee85b3d3"
      ],
      "transaction": {
        "from": "0xe0bb22e4cefd5947747d8bef242038a7d4466670",
        "to": "0x78acca4e8269e6082d1c78b7386366feb7865fb4",
        "gas": "0x697e9",
        "value": "0x0",
        "input": "0x4036778f00000000000000000000000000000000000000000000000000000000000000680704a5959ed7c0ca9e105a816ed41ead23c47d2c0d166d32735eba96ee85b3d3",
        "nonce": "0xd4",
        "chainId": "0xd6dc"
      },
      "additionalContracts": [],
      "isFixedGasLimit": false
    }
  ],
  "receipts": [],
  "libraries": [],
  "pending": [],
  "returns": {},
  "timestamp": 1728276755,
  "chain": 55004,
  "commit": "1e778b4"
}