{
  "transactions": [
    {
      "hash": "0x69caacb4bc0b4f6de243ae8aad966b6b36108e6ee8766666128a165680836063",
      "transactionType": "CALL",
      "contractName": null,
      "contractAddress": "0x3b8cd1121b9cea3b5aaa7e936b68eea8a6cb6981",
      "function": "blackList(address[])",
      "arguments": [
        "[0x8Ec6e633f79F038E352D794D02Ee053fB3895F94]"
      ],
      "transaction": {
        "from": "0xb68aa9e398c054da7ebaaa446292f611ca0cd52b",
        "to": "0x3b8cd1121b9cea3b5aaa7e936b68eea8a6cb6981",
        "gas": "0xe3cc",
        "value": "0x0",
        "input": "0x82c8028b000000000000000000000000000000000000000000000000000000000000002000000000000000000000000000000000000000000000000000000000000000010000000000000000000000008ec6e633f79f038e352d794d02ee053fb3895f94",
        "nonce": "0xf4",
        "chainId": "0xd6df"
      },
      "additionalContracts": [],
      "isFixedGasLimit": false
    }
  ],
  "receipts": [],
  "libraries": [],
  "pending": [
    "0x69caacb4bc0b4f6de243ae8aad966b6b36108e6ee8766666128a165680836063"
  ],
  "returns": {},
  "timestamp": 1727416601,
  "chain": 55007,
  "commit": "278601d"
}