{
  "transactions": [
    {
      "hash": "0x988a1617e9a374b97940cf67563c67995b324c8f230ead963c89ce483ee146c7",
      "transactionType": "CALL",
      "contractName": null,
      "contractAddress": "0x3b8cd1121b9cea3b5aaa7e936b68eea8a6cb6981",
      "function": "blackList(address[])",
      "arguments": [
        "[0xE49c9ea00337182374E112C452247A2D1db61798]"
      ],
      "transaction": {
        "from": "0xb68aa9e398c054da7ebaaa446292f611ca0cd52b",
        "to": "0x3b8cd1121b9cea3b5aaa7e936b68eea8a6cb6981",
        "gas": "0xe3cc",
        "value": "0x0",
        "input": "0x82c8028b00000000000000000000000000000000000000000000000000000000000000200000000000000000000000000000000000000000000000000000000000000001000000000000000000000000e49c9ea00337182374e112c452247a2d1db61798",
        "nonce": "0xf2",
        "chainId": "0xd6df"
      },
      "additionalContracts": [],
      "isFixedGasLimit": false
    }
  ],
  "receipts": [],
  "libraries": [],
  "pending": [
    "0x988a1617e9a374b97940cf67563c67995b324c8f230ead963c89ce483ee146c7"
  ],
  "returns": {},
  "timestamp": 1727415520,
  "chain": 55007,
  "commit": "278601d"
}